{
  "contractName": "Vote",
  "abi": [
    {
      "inputs": [],
      "stateMutability": "nonpayable",
      "type": "constructor"
    },
    {
      "inputs": [],
      "name": "winner",
      "outputs": [
        {
          "internalType": "address",
          "name": "",
          "type": "address"
        }
      ],
      "stateMutability": "view",
      "type": "function"
    },
    {
      "inputs": [
        {
          "internalType": "string",
          "name": "_name",
          "type": "string"
        },
        {
          "internalType": "uint256",
          "name": "_age",
          "type": "uint256"
        },
        {
          "internalType": "string",
          "name": "_gender",
          "type": "string"
        }
      ],
      "name": "voterRegister",
      "outputs": [
        {
          "internalType": "bool",
          "name": "",
          "type": "bool"
        }
      ],
      "stateMutability": "nonpayable",
      "type": "function"
    },
    {
      "inputs": [
        {
          "internalType": "uint256",
          "name": "_voterId",
          "type": "uint256"
        },
        {
          "internalType": "uint256",
          "name": "_id",
          "type": "uint256"
        }
      ],
      "name": "vote",
      "outputs": [],
      "stateMutability": "nonpayable",
      "type": "function"
    },
    {
      "inputs": [
        {
          "internalType": "string",
          "name": "_name",
          "type": "string"
        },
        {
          "internalType": "string",
          "name": "_party",
          "type": "string"
        },
        {
          "internalType": "uint256",
          "name": "_age",
          "type": "uint256"
        },
        {
          "internalType": "string",
          "name": "_gender",
          "type": "string"
        }
      ],
      "name": "candidateRegister",
      "outputs": [],
      "stateMutability": "nonpayable",
      "type": "function"
    },
    {
      "inputs": [],
      "name": "result",
      "outputs": [],
      "stateMutability": "nonpayable",
      "type": "function"
    },
    {
      "inputs": [],
      "name": "candidateList",
      "outputs": [
        {
          "components": [
            {
              "internalType": "string",
              "name": "name",
              "type": "string"
            },
            {
              "internalType": "string",
              "name": "party",
              "type": "string"
            },
            {
              "internalType": "uint256",
              "name": "age",
              "type": "uint256"
            },
            {
              "internalType": "string",
              "name": "gender",
              "type": "string"
            },
            {
              "internalType": "uint256",
              "name": "candidateId",
              "type": "uint256"
            },
            {
              "internalType": "address",
              "name": "candidateAddress",
              "type": "address"
            },
            {
              "internalType": "uint256",
              "name": "votes",
              "type": "uint256"
            }
          ],
          "internalType": "struct Vote.Candidate[]",
          "name": "",
          "type": "tuple[]"
        }
      ],
      "stateMutability": "view",
      "type": "function"
    },
    {
      "inputs": [],
      "name": "voterList",
      "outputs": [
        {
          "components": [
            {
              "internalType": "string",
              "name": "name",
              "type": "string"
            },
            {
              "internalType": "uint256",
              "name": "age",
              "type": "uint256"
            },
            {
              "internalType": "uint256",
              "name": "voterId",
              "type": "uint256"
            },
            {
              "internalType": "string",
              "name": "gender",
              "type": "string"
            },
            {
              "internalType": "uint256",
              "name": "voteCandidateId",
              "type": "uint256"
            },
            {
              "internalType": "address",
              "name": "voterAddress",
              "type": "address"
            }
          ],
          "internalType": "struct Vote.Voter[]",
          "name": "",
          "type": "tuple[]"
        }
      ],
      "stateMutability": "view",
      "type": "function"
    },
    {
      "inputs": [
        {
          "internalType": "uint256",
          "name": "_startTime",
          "type": "uint256"
        },
        {
          "internalType": "uint256",
          "name": "_endTime",
          "type": "uint256"
        }
      ],
      "name": "voteTime",
      "outputs": [],
      "stateMutability": "nonpayable",
      "type": "function"
    },
    {
      "inputs": [],
      "name": "votingStatus",
      "outputs": [
        {
          "internalType": "string",
          "name": "",
          "type": "string"
        }
      ],
      "stateMutability": "view",
      "type": "function"
    },
    {
      "inputs": [],
      "name": "emergency",
      "outputs": [],
      "stateMutability": "nonpayable",
      "type": "function"
    }
  ],
  "bytecode": "0x60806040526001600255600160035534801561001a57600080fd5b50336000806101000a81548173ffffffffffffffffffffffffffffffffffffffff021916908373ffffffffffffffffffffffffffffffffffffffff160217905550612a8e8061006a6000396000f3fe608060405234801561001057600080fd5b506004361061009e5760003560e01c806393e5fed21161006657806393e5fed214610123578063b384abef14610153578063caa6fea41461016f578063cf5ce2e714610179578063dfbf53ae146101955761009e565b806319f41a40146100a357806324089918146100c1578063498ea441146100df57806365372147146100fd57806365ca2be314610107575b600080fd5b6100ab6101b3565b6040516100b89190611cb6565b60405180910390f35b6100c96102ad565b6040516100d69190611ece565b60405180910390f35b6100e7610521565b6040516100f4919061205c565b60405180910390f35b610105610827565b005b610121600480360381019061011c91906120b4565b610a34565b005b61013d60048036038101906101389190612159565b610b07565b60405161014a9190612209565b60405180910390f35b61016d600480360381019061016891906120b4565b610e46565b005b6101776110b6565b005b610193600480360381019061018e9190612224565b6110d3565b005b61019d6113b0565b6040516101aa91906122fc565b60405180910390f35b60606000600454036101fc576040518060400160405280600b81526020017f4e6f74205374617274656400000000000000000000000000000000000000000081525090506102aa565b600060045414158015610210575042600554115b801561022f575060001515600860009054906101000a900460ff161515145b15610271576040518060400160405280600b81526020017f496e2070726f677265737300000000000000000000000000000000000000000081525090506102aa565b6040518060400160405280600581526020017f456e64656400000000000000000000000000000000000000000000000000000081525090505b90565b6060600060016002546102c09190612346565b67ffffffffffffffff8111156102d9576102d861237a565b5b60405190808252806020026020018201604052801561031257816020015b6102ff611a4e565b8152602001906001900390816102f75790505b5090506000600190505b60025481101561051957600660008281526020019081526020016000206040518060c0016040529081600082018054610354906123d8565b80601f0160208091040260200160405190810160405280929190818152602001828054610380906123d8565b80156103cd5780601f106103a2576101008083540402835291602001916103cd565b820191906000526020600020905b8154815290600101906020018083116103b057829003601f168201915b5050505050815260200160018201548152602001600282015481526020016003820180546103fa906123d8565b80601f0160208091040260200160405190810160405280929190818152602001828054610426906123d8565b80156104735780601f1061044857610100808354040283529160200191610473565b820191906000526020600020905b81548152906001019060200180831161045657829003601f168201915b50505050508152602001600482015481526020016005820160009054906101000a900473ffffffffffffffffffffffffffffffffffffffff1673ffffffffffffffffffffffffffffffffffffffff1673ffffffffffffffffffffffffffffffffffffffff1681525050826001836104ea9190612346565b815181106104fb576104fa612409565b5b6020026020010181905250808061051190612438565b91505061031c565b508091505090565b6060600060016003546105349190612346565b67ffffffffffffffff81111561054d5761054c61237a565b5b60405190808252806020026020018201604052801561058657816020015b610573611a9a565b81526020019060019003908161056b5790505b5090506000600190505b60035481101561081f57600760008281526020019081526020016000206040518060e00160405290816000820180546105c8906123d8565b80601f01602080910402602001604051908101604052809291908181526020018280546105f4906123d8565b80156106415780601f1061061657610100808354040283529160200191610641565b820191906000526020600020905b81548152906001019060200180831161062457829003601f168201915b5050505050815260200160018201805461065a906123d8565b80601f0160208091040260200160405190810160405280929190818152602001828054610686906123d8565b80156106d35780601f106106a8576101008083540402835291602001916106d3565b820191906000526020600020905b8154815290600101906020018083116106b657829003601f168201915b50505050508152602001600282015481526020016003820180546106f6906123d8565b80601f0160208091040260200160405190810160405280929190818152602001828054610722906123d8565b801561076f5780601f106107445761010080835404028352916020019161076f565b820191906000526020600020905b81548152906001019060200180831161075257829003601f168201915b50505050508152602001600482015481526020016005820160009054906101000a900473ffffffffffffffffffffffffffffffffffffffff1673ffffffffffffffffffffffffffffffffffffffff1673ffffffffffffffffffffffffffffffffffffffff168152602001600682015481525050826001836107f09190612346565b8151811061080157610800612409565b5b6020026020010181905250808061081790612438565b915050610590565b508091505090565b60008054906101000a900473ffffffffffffffffffffffffffffffffffffffff1673ffffffffffffffffffffffffffffffffffffffff163373ffffffffffffffffffffffffffffffffffffffff16146108b5576040517f08c379a00000000000000000000000000000000000000000000000000000000081526004016108ac906124f2565b60405180910390fd5b600060016003546108c69190612346565b67ffffffffffffffff8111156108df576108de61237a565b5b60405190808252806020026020018201604052801561091857816020015b610905611a9a565b8152602001906001900390816108fd5790505b509050610923610521565b90508060018151811061093957610938612409565b5b602002602001015160c001518160008151811061095957610958612409565b5b602002602001015160c0015111156109d0578060008151811061097f5761097e612409565b5b602002602001015160a00151600160006101000a81548173ffffffffffffffffffffffffffffffffffffffff021916908373ffffffffffffffffffffffffffffffffffffffff160217905550610a31565b806001815181106109e4576109e3612409565b5b602002602001015160a00151600160006101000a81548173ffffffffffffffffffffffffffffffffffffffff021916908373ffffffffffffffffffffffffffffffffffffffff1602179055505b50565b60008054906101000a900473ffffffffffffffffffffffffffffffffffffffff1673ffffffffffffffffffffffffffffffffffffffff163373ffffffffffffffffffffffffffffffffffffffff1614610ac2576040517f08c379a0000000000000000000000000000000000000000000000000000000008152600401610ab990612584565b60405180910390fd5b8142610ace91906125a4565b60048190555080600454610ae291906125a4565b6005819055506000600860006101000a81548160ff0219169083151502179055505050565b6000610b12336113d6565b610b51576040517f08c379a0000000000000000000000000000000000000000000000000000000008152600401610b4890612646565b60405180910390fd5b6012841015610b95576040517f08c379a0000000000000000000000000000000000000000000000000000000008152600401610b8c906126b2565b60405180910390fd5b6040518060c0016040528087878080601f016020809104026020016040519081016040528093929190818152602001838380828437600081840152601f19601f820116905080830192505050505050508152602001858152602001600254815260200184848080601f016020809104026020016040519081016040528093929190818152602001838380828437600081840152601f19601f820116905080830192505050505050508152602001600081526020013373ffffffffffffffffffffffffffffffffffffffff168152506006600060025481526020019081526020016000206000820151816000019080519060200190610c94929190611aed565b5060208201518160010155604082015181600201556060820151816003019080519060200190610cc5929190611aed565b506080820151816004015560a08201518160050160006101000a81548173ffffffffffffffffffffffffffffffffffffffff021916908373ffffffffffffffffffffffffffffffffffffffff160217905550905050600960066000600254815260200190815260200160002090806001815401808255809150506001900390600052602060002090600602016000909190919091506000820181600001908054610d6e906123d8565b610d79929190611b73565b5060018201548160010155600282015481600201556003820181600301908054610da2906123d8565b610dad929190611b73565b50600482015481600401556005820160009054906101000a900473ffffffffffffffffffffffffffffffffffffffff168160050160006101000a81548173ffffffffffffffffffffffffffffffffffffffff021916908373ffffffffffffffffffffffffffffffffffffffff160217905550505060026000815480929190610e3490612438565b91905055506001905095945050505050565b426005541180610e625750600860009054906101000a900460ff165b610ea1576040517f08c379a0000000000000000000000000000000000000000000000000000000008152600401610e989061271e565b60405180910390fd5b6000600660008481526020019081526020016000206004015414610efa576040517f08c379a0000000000000000000000000000000000000000000000000000000008152600401610ef19061278a565b60405180910390fd5b3373ffffffffffffffffffffffffffffffffffffffff166006600084815260200190815260200160002060050160009054906101000a900473ffffffffffffffffffffffffffffffffffffffff1673ffffffffffffffffffffffffffffffffffffffff1614610f9e576040517f08c379a0000000000000000000000000000000000000000000000000000000008152600401610f95906127f6565b60405180910390fd5b600060045403610fe3576040517f08c379a0000000000000000000000000000000000000000000000000000000008152600401610fda90612862565b60405180910390fd5b600260035411611028576040517f08c379a000000000000000000000000000000000000000000000000000000000815260040161101f906128ce565b60405180910390fd5b6003811061106b576040517f08c379a00000000000000000000000000000000000000000000000000000000081526004016110629061293a565b60405180910390fd5b8060066000848152602001908152602001600020600401819055506007600082815260200190815260200160002060060160008154809291906110ad90612438565b91905055505050565b6001600860006101000a81548160ff021916908315150217905550565b6110dc336116c9565b61111b576040517f08c379a000000000000000000000000000000000000000000000000000000000815260040161111290612646565b60405180910390fd5b601283101561115f576040517f08c379a0000000000000000000000000000000000000000000000000000000008152600401611156906129cc565b60405180910390fd5b60038054106111a3576040517f08c379a000000000000000000000000000000000000000000000000000000000815260040161119a90612a38565b60405180910390fd5b6040518060e0016040528088888080601f016020809104026020016040519081016040528093929190818152602001838380828437600081840152601f19601f82011690508083019250505050505050815260200186868080601f016020809104026020016040519081016040528093929190818152602001838380828437600081840152601f19601f82011690508083019250505050505050815260200184815260200183838080601f016020809104026020016040519081016040528093929190818152602001838380828437600081840152601f19601f82011690508083019250505050505050815260200160035481526020013373ffffffffffffffffffffffffffffffffffffffff168152602001600081525060076000600354815260200190815260200160002060008201518160000190805190602001906112ec929190611aed565b506020820151816001019080519060200190611309929190611aed565b50604082015181600201556060820151816003019080519060200190611330929190611aed565b506080820151816004015560a08201518160050160006101000a81548173ffffffffffffffffffffffffffffffffffffffff021916908373ffffffffffffffffffffffffffffffffffffffff16021790555060c08201518160060155905050600360008154809291906113a290612438565b919050555050505050505050565b600160009054906101000a900473ffffffffffffffffffffffffffffffffffffffff1681565b60008060016002546113e89190612346565b67ffffffffffffffff8111156114015761140061237a565b5b60405190808252806020026020018201604052801561143a57816020015b611427611a4e565b81526020019060019003908161141f5790505b5090506000600190505b60025481101561164157600660008281526020019081526020016000206040518060c001604052908160008201805461147c906123d8565b80601f01602080910402602001604051908101604052809291908181526020018280546114a8906123d8565b80156114f55780601f106114ca576101008083540402835291602001916114f5565b820191906000526020600020905b8154815290600101906020018083116114d857829003601f168201915b505050505081526020016001820154815260200160028201548152602001600382018054611522906123d8565b80601f016020809104026020016040519081016040528092919081815260200182805461154e906123d8565b801561159b5780601f106115705761010080835404028352916020019161159b565b820191906000526020600020905b81548152906001019060200180831161157e57829003601f168201915b50505050508152602001600482015481526020016005820160009054906101000a900473ffffffffffffffffffffffffffffffffffffffff1673ffffffffffffffffffffffffffffffffffffffff1673ffffffffffffffffffffffffffffffffffffffff1681525050826001836116129190612346565b8151811061162357611622612409565b5b6020026020010181905250808061163990612438565b915050611444565b5060005b81518110156116bd578373ffffffffffffffffffffffffffffffffffffffff1682828151811061167857611677612409565b5b602002602001015160a0015173ffffffffffffffffffffffffffffffffffffffff16036116aa576000925050506116c4565b80806116b590612438565b915050611645565b5060019150505b919050565b60008060016003546116db9190612346565b67ffffffffffffffff8111156116f4576116f361237a565b5b60405190808252806020026020018201604052801561172d57816020015b61171a611a9a565b8152602001906001900390816117125790505b5090506000600190505b6003548110156119c657600760008281526020019081526020016000206040518060e001604052908160008201805461176f906123d8565b80601f016020809104026020016040519081016040528092919081815260200182805461179b906123d8565b80156117e85780601f106117bd576101008083540402835291602001916117e8565b820191906000526020600020905b8154815290600101906020018083116117cb57829003601f168201915b50505050508152602001600182018054611801906123d8565b80601f016020809104026020016040519081016040528092919081815260200182805461182d906123d8565b801561187a5780601f1061184f5761010080835404028352916020019161187a565b820191906000526020600020905b81548152906001019060200180831161185d57829003601f168201915b505050505081526020016002820154815260200160038201805461189d906123d8565b80601f01602080910402602001604051908101604052809291908181526020018280546118c9906123d8565b80156119165780601f106118eb57610100808354040283529160200191611916565b820191906000526020600020905b8154815290600101906020018083116118f957829003601f168201915b50505050508152602001600482015481526020016005820160009054906101000a900473ffffffffffffffffffffffffffffffffffffffff1673ffffffffffffffffffffffffffffffffffffffff1673ffffffffffffffffffffffffffffffffffffffff168152602001600682015481525050826001836119979190612346565b815181106119a8576119a7612409565b5b602002602001018190525080806119be90612438565b915050611737565b5060005b8151811015611a42578373ffffffffffffffffffffffffffffffffffffffff168282815181106119fd576119fc612409565b5b602002602001015160a0015173ffffffffffffffffffffffffffffffffffffffff1603611a2f57600092505050611a49565b8080611a3a90612438565b9150506119ca565b5060019150505b919050565b6040518060c001604052806060815260200160008152602001600081526020016060815260200160008152602001600073ffffffffffffffffffffffffffffffffffffffff1681525090565b6040518060e001604052806060815260200160608152602001600081526020016060815260200160008152602001600073ffffffffffffffffffffffffffffffffffffffff168152602001600081525090565b828054611af9906123d8565b90600052602060002090601f016020900481019282611b1b5760008555611b62565b82601f10611b3457805160ff1916838001178555611b62565b82800160010185558215611b62579182015b82811115611b61578251825591602001919060010190611b46565b5b509050611b6f9190611c00565b5090565b828054611b7f906123d8565b90600052602060002090601f016020900481019282611ba15760008555611bef565b82601f10611bb25780548555611bef565b82800160010185558215611bef57600052602060002091601f016020900482015b82811115611bee578254825591600101919060010190611bd3565b5b509050611bfc9190611c00565b5090565b5b80821115611c19576000816000905550600101611c01565b5090565b600081519050919050565b600082825260208201905092915050565b60005b83811015611c57578082015181840152602081019050611c3c565b83811115611c66576000848401525b50505050565b6000601f19601f8301169050919050565b6000611c8882611c1d565b611c928185611c28565b9350611ca2818560208601611c39565b611cab81611c6c565b840191505092915050565b60006020820190508181036000830152611cd08184611c7d565b905092915050565b600081519050919050565b600082825260208201905092915050565b6000819050602082019050919050565b600082825260208201905092915050565b6000611d2082611c1d565b611d2a8185611d04565b9350611d3a818560208601611c39565b611d4381611c6c565b840191505092915050565b6000819050919050565b611d6181611d4e565b82525050565b600073ffffffffffffffffffffffffffffffffffffffff82169050919050565b6000611d9282611d67565b9050919050565b611da281611d87565b82525050565b600060c0830160008301518482036000860152611dc58282611d15565b9150506020830151611dda6020860182611d58565b506040830151611ded6040860182611d58565b5060608301518482036060860152611e058282611d15565b9150506080830151611e1a6080860182611d58565b5060a0830151611e2d60a0860182611d99565b508091505092915050565b6000611e448383611da8565b905092915050565b6000602082019050919050565b6000611e6482611cd8565b611e6e8185611ce3565b935083602082028501611e8085611cf4565b8060005b85811015611ebc5784840389528151611e9d8582611e38565b9450611ea883611e4c565b925060208a01995050600181019050611e84565b50829750879550505050505092915050565b60006020820190508181036000830152611ee88184611e59565b905092915050565b600081519050919050565b600082825260208201905092915050565b6000819050602082019050919050565b600060e0830160008301518482036000860152611f398282611d15565b91505060208301518482036020860152611f538282611d15565b9150506040830151611f686040860182611d58565b5060608301518482036060860152611f808282611d15565b9150506080830151611f956080860182611d58565b5060a0830151611fa860a0860182611d99565b5060c0830151611fbb60c0860182611d58565b508091505092915050565b6000611fd28383611f1c565b905092915050565b6000602082019050919050565b6000611ff282611ef0565b611ffc8185611efb565b93508360208202850161200e85611f0c565b8060005b8581101561204a578484038952815161202b8582611fc6565b945061203683611fda565b925060208a01995050600181019050612012565b50829750879550505050505092915050565b600060208201905081810360008301526120768184611fe7565b905092915050565b600080fd5b600080fd5b61209181611d4e565b811461209c57600080fd5b50565b6000813590506120ae81612088565b92915050565b600080604083850312156120cb576120ca61207e565b5b60006120d98582860161209f565b92505060206120ea8582860161209f565b9150509250929050565b600080fd5b600080fd5b600080fd5b60008083601f840112612119576121186120f4565b5b8235905067ffffffffffffffff811115612136576121356120f9565b5b602083019150836001820283011115612152576121516120fe565b5b9250929050565b6000806000806000606086880312156121755761217461207e565b5b600086013567ffffffffffffffff81111561219357612192612083565b5b61219f88828901612103565b955095505060206121b28882890161209f565b935050604086013567ffffffffffffffff8111156121d3576121d2612083565b5b6121df88828901612103565b92509250509295509295909350565b60008115159050919050565b612203816121ee565b82525050565b600060208201905061221e60008301846121fa565b92915050565b60008060008060008060006080888a0312156122435761224261207e565b5b600088013567ffffffffffffffff81111561226157612260612083565b5b61226d8a828b01612103565b9750975050602088013567ffffffffffffffff8111156122905761228f612083565b5b61229c8a828b01612103565b955095505060406122af8a828b0161209f565b935050606088013567ffffffffffffffff8111156122d0576122cf612083565b5b6122dc8a828b01612103565b925092505092959891949750929550565b6122f681611d87565b82525050565b600060208201905061231160008301846122ed565b92915050565b7f4e487b7100000000000000000000000000000000000000000000000000000000600052601160045260246000fd5b600061235182611d4e565b915061235c83611d4e565b92508282101561236f5761236e612317565b5b828203905092915050565b7f4e487b7100000000000000000000000000000000000000000000000000000000600052604160045260246000fd5b7f4e487b7100000000000000000000000000000000000000000000000000000000600052602260045260246000fd5b600060028204905060018216806123f057607f821691505b602082108103612403576124026123a9565b5b50919050565b7f4e487b7100000000000000000000000000000000000000000000000000000000600052603260045260246000fd5b600061244382611d4e565b91507fffffffffffffffffffffffffffffffffffffffffffffffffffffffffffffffff820361247557612474612317565b5b600182019050919050565b7f596f7520617265206e6f742066726f6d20656c656374696f6e20636f6d6d697360008201527f696f6e0000000000000000000000000000000000000000000000000000000000602082015250565b60006124dc602383611c28565b91506124e782612480565b604082019050919050565b6000602082019050818103600083015261250b816124cf565b9050919050565b7f596f7520617265206e6f742066726f6d20456c656374696f6e20436f6d6d697360008201527f696f6e0000000000000000000000000000000000000000000000000000000000602082015250565b600061256e602383611c28565b915061257982612512565b604082019050919050565b6000602082019050818103600083015261259d81612561565b9050919050565b60006125af82611d4e565b91506125ba83611d4e565b9250827fffffffffffffffffffffffffffffffffffffffffffffffffffffffffffffffff038211156125ef576125ee612317565b5b828201905092915050565b7f596f75206861766520616c726561647920726567697374657264000000000000600082015250565b6000612630601a83611c28565b915061263b826125fa565b602082019050919050565b6000602082019050818103600083015261265f81612623565b9050919050565b7f596f7520617265206e6f7420656c696769626c6520746f20766f746500000000600082015250565b600061269c601c83611c28565b91506126a782612666565b602082019050919050565b600060208201905081810360008301526126cb8161268f565b9050919050565b7f566f74696e67206973206f766572000000000000000000000000000000000000600082015250565b6000612708600e83611c28565b9150612713826126d2565b602082019050919050565b60006020820190508181036000830152612737816126fb565b9050919050565b7f596f75206861766520616c726561647920766f74656400000000000000000000600082015250565b6000612774601683611c28565b915061277f8261273e565b602082019050919050565b600060208201905081810360008301526127a381612767565b9050919050565b7f596f7520617265206e6f74206120766f74657200000000000000000000000000600082015250565b60006127e0601383611c28565b91506127eb826127aa565b602082019050919050565b6000602082019050818103600083015261280f816127d3565b9050919050565b7f566f74696e6720686173206e6f74207374617274656400000000000000000000600082015250565b600061284c601683611c28565b915061285782612816565b602082019050919050565b6000602082019050818103600083015261287b8161283f565b9050919050565b7f546865726520617265206e6f2063616e6469646174657320746f20766f746500600082015250565b60006128b8601f83611c28565b91506128c382612882565b602082019050919050565b600060208201905081810360008301526128e7816128ab565b9050919050565b7f43616e64696461746520646f6573206e6f742065786973740000000000000000600082015250565b6000612924601883611c28565b915061292f826128ee565b602082019050919050565b6000602082019050818103600083015261295381612917565b9050919050565b7f596f7520617265206e6f7420656c696769626c6520746f20626520612063616e60008201527f6469646174650000000000000000000000000000000000000000000000000000602082015250565b60006129b6602683611c28565b91506129c18261295a565b604082019050919050565b600060208201905081810360008301526129e5816129a9565b9050919050565b7f526567697374726174696f6e2069732066756c6c000000000000000000000000600082015250565b6000612a22601483611c28565b9150612a2d826129ec565b602082019050919050565b60006020820190508181036000830152612a5181612a15565b905091905056fea2646970667358221220bb48e0c4ec15f0513d77dfe35da368326426d5a0040256451528fed0fdb8e49864736f6c634300080e0033",
  "immutableReferences": {},
  "source": "// SPDX-License-Identifier: MIT\r\npragma solidity >=0.5.0 <0.9.0;\r\n\r\ncontract Vote {\r\n    address electionCommission;\r\n    address public winner;\r\n    struct Voter {\r\n        string name;\r\n        uint256 age;\r\n        uint256 voterId;\r\n        string gender;\r\n        uint256 voteCandidateId;\r\n        address voterAddress;\r\n    }\r\n\r\n    struct Candidate {\r\n        string name;\r\n        string party;\r\n        uint256 age;\r\n        string gender;\r\n        uint256 candidateId;\r\n        address candidateAddress;\r\n        uint256 votes;\r\n    }\r\n\r\n    uint256 nextVoterId = 1;\r\n    uint256 nextCandidateId = 1;\r\n    uint256 startTime;\r\n    uint256 endTime;\r\n    mapping(uint256 => Voter) voterDetails;\r\n    mapping(uint256 => Candidate) candidateDetails;\r\n    bool stopVoting;\r\n    Voter[] private voteArr;\r\n\r\n    constructor() {\r\n        electionCommission = msg.sender;\r\n    }\r\n\r\n    modifier isVotingOver() {\r\n        require(endTime > block.timestamp || stopVoting, \"Voting is over\");\r\n        _;\r\n    }\r\n\r\n    function voterVerification(address _person) internal view returns (bool) {\r\n        Voter[] memory arr = new Voter[](nextVoterId - 1);\r\n\r\n        for (uint256 i = 1; i < nextVoterId; i++) {\r\n            arr[i - 1] = voterDetails[i];\r\n        }\r\n        for (uint256 i = 0; i < arr.length; i++) {\r\n            if (arr[i].voterAddress == _person) {\r\n                return false;\r\n            }\r\n        }\r\n        return true;\r\n    }\r\n\r\n    function candidateVerification(address _person)\r\n        internal\r\n        view\r\n        returns (bool)\r\n    {\r\n        Candidate[] memory arr = new Candidate[](nextCandidateId - 1);\r\n\r\n        for (uint256 i = 1; i < nextCandidateId; i++) {\r\n            arr[i - 1] = candidateDetails[i];\r\n        }\r\n        for (uint256 i = 0; i < arr.length; i++) {\r\n            if (arr[i].candidateAddress == _person) {\r\n                return false;\r\n            }\r\n        }\r\n        return true;\r\n    }\r\n\r\n    function voterRegister(\r\n        string calldata _name,\r\n        uint256 _age,\r\n        string calldata _gender\r\n    ) external returns (bool) {\r\n        require(voterVerification(msg.sender), \"You have already registerd\");\r\n        require(_age >= 18, \"You are not eligible to vote\");\r\n        voterDetails[nextVoterId] = Voter(\r\n            _name,\r\n            _age,\r\n            nextVoterId,\r\n            _gender,\r\n            0,\r\n            msg.sender\r\n        );\r\n        voteArr.push(voterDetails[nextVoterId]);\r\n        nextVoterId++;\r\n        return true;\r\n    }\r\n\r\n    function vote(uint256 _voterId, uint256 _id) external isVotingOver {\r\n        require(\r\n            voterDetails[_voterId].voteCandidateId == 0,\r\n            \"You have already voted\"\r\n        );\r\n        require(\r\n            voterDetails[_voterId].voterAddress == msg.sender,\r\n            \"You are not a voter\"\r\n        );\r\n        require(startTime != 0, \"Voting has not started\");\r\n        require(nextCandidateId > 2, \"There are no candidates to vote\");\r\n        require(_id < 3, \"Candidate does not exist\");\r\n        voterDetails[_voterId].voteCandidateId = _id;\r\n        candidateDetails[_id].votes++;\r\n    }\r\n\r\n    function candidateRegister(\r\n        string calldata _name,\r\n        string calldata _party,\r\n        uint256 _age,\r\n        string calldata _gender\r\n    ) external {\r\n        require(\r\n            candidateVerification(msg.sender),\r\n            \"You have already registerd\"\r\n        );\r\n        require(_age >= 18, \"You are not eligible to be a candidate\");\r\n        require(nextCandidateId < 3, \"Registration is full\");\r\n        candidateDetails[nextCandidateId] = Candidate(\r\n            _name,\r\n            _party,\r\n            _age,\r\n            _gender,\r\n            nextCandidateId,\r\n            msg.sender,\r\n            0\r\n        );\r\n        nextCandidateId++;\r\n    }\r\n\r\n    function result() external {\r\n        require(\r\n            msg.sender == electionCommission,\r\n            \"You are not from election commision\"\r\n        );\r\n        //require - for timings\r\n        //require- emergency\r\n        //require- to check whether candidates have registered for this or not\r\n        Candidate[] memory arr = new Candidate[](nextCandidateId - 1);\r\n        arr = candidateList();\r\n\r\n        if (arr[0].votes > arr[1].votes) {\r\n            winner = arr[0].candidateAddress;\r\n        } else {\r\n            winner = arr[1].candidateAddress;\r\n        }\r\n    }\r\n\r\n    function candidateList() public view returns (Candidate[] memory) {\r\n        Candidate[] memory arr = new Candidate[](nextCandidateId - 1);\r\n\r\n        for (uint256 i = 1; i < nextCandidateId; i++) {\r\n            arr[i - 1] = candidateDetails[i];\r\n        }\r\n        return arr;\r\n    }\r\n\r\n    function voterList() external view returns (Voter[] memory) {\r\n        Voter[] memory arr = new Voter[](nextVoterId - 1);\r\n        for (uint256 i = 1; i < nextVoterId; i++) {\r\n            arr[i - 1] = voterDetails[i];\r\n        }\r\n        return arr;\r\n    }\r\n\r\n    function voteTime(uint256 _startTime, uint256 _endTime) external {\r\n        require(\r\n            msg.sender == electionCommission,\r\n            \"You are not from Election Commision\"\r\n        );\r\n        startTime = block.timestamp + _startTime;\r\n        endTime = startTime + _endTime;\r\n        stopVoting = false;\r\n    }\r\n\r\n    function votingStatus() public view returns (string memory) {\r\n        if (startTime == 0) {\r\n            return \"Not Started\";\r\n        } else if (\r\n            (startTime != 0 && endTime > block.timestamp) && stopVoting == false\r\n        ) {\r\n            return \"In progress\";\r\n        } else {\r\n            return \"Ended\";\r\n        }\r\n    }\r\n\r\n    function emergency() public {\r\n        stopVoting = true;\r\n    }\r\n}\r\n\r\n// Candidate Registration Page\r\n// Candidate Login Page\r\n// Voter Registration Page\r\n// Voter Login Page\r\n",
  "sourcePath": "C:\\block_chain\\voting_dapp\\Vstarter\\contracts\\Voting.sol",
  "compiler": {
    "name": "solc",
    "version": "0.8.14+commit.80d49f37.Emscripten.clang"
  },
  "schemaVersion": "3.4.11",
  "updatedAt": "2023-03-12T10:45:20.335Z",
  "devdoc": {
    "kind": "dev",
    "methods": {},
    "version": 1
  },
  "userdoc": {
    "kind": "user",
    "methods": {},
    "version": 1
  }
}